:100003007FBFDFEFF7FBFDFE0000224949493600C1
:10001300000027454545390000000000217F01000D
:10002300003C2424FF24243CFF81ABBFABAB85FF02
:10003300BFA1FDA1FDA5A1BF7C5454FF55557D0271
:1000430081422418182442810000FF8181423C0030
:1000530000FC02020202FC0048526BFF6A52480095
:10006300004A5062F862504A00FE02020200BE00DB
:08007300000202BE00BE000005
:1000FB00E4FDFCC3ED9FEC9E5015E4FBFA0BBB003B
:0F010B00010AEB64794A70F50DBD00010C80E428
:01011A0022C2
:1000D500C2B6C2B5E4FEEFC4131313540124FF9254
:1000E500B4EF25E0FFD2B60000C2B60EBE08E7D2D7
:0500F500B50000C2B5DA
:0100FA0022E3
:10007B00E4F509F50AE4F9E4FF1200D5E990000371
:10008B0093F580E50875F008A4240BF582E43400A1
:10009B00F583E58229F582E43583F583E493FF123A
:1000AB0000D57F027E001200FB09B908CA050AE5DC
:1000BB000A70020509C39450E509940040B705087E
:0A00CB00E508B40EABE4F50880A6CA
:0300000002011BDF
:0C011B00787FE4F6D8FD75810A02007BB5
:00000001FF
